:100000000C942A000C9434000C9434000C943400AA
:100010000C9434000C9434000C9434000C94340090
:100020000C9434000C9434000C9434000C94340080
:100030000C9434000C9434000C9434000C94340070
:100040000C9434000C9434000C9434000C94340060
:100050000C94340011241FBECFE5D8E0DEBFCDBF25
:100060000E94910C0C94300E0C940000CF93DF93FF
:1000700000D00F92CDB7DEB789836A834B838B8123
:10008000882F90E0009721F0019709F475C0E7C030
:100090008981882F90E08330910509F455C0843020
:1000A00091050CF0D9C082309105B9F183309105EA
:1000B0000CF0D2C0009719F00197C1F0CDC08AE3CF
:1000C00090E0FC018081482F8A81282F30E081E078
:1000D00090E002C0880F991F2A95E2F78095242F9F
:1000E00028238AE390E0FC01208345C087E390E069
:1000F000FC018081482F8A81282F30E081E090E048
:1001000002C0880F991F2A95E2F78095242F282393
:1001100087E390E0FC0120832EC084E390E0FC01A3
:100120008081482F8A81282F30E081E090E002C052
:10013000880F991F2A95E2F78095242F282384E3BE
:1001400090E0FC01208317C081E390E0FC018081F6
:10015000482F8A81282F30E081E090E002C0880F8C
:10016000991F2A95E2F78095242F282381E390E0B8
:10017000FC012083000070C08981882F90E08330CB
:10018000910509F452C0843091050CF067C08230AB
:100190009105A9F1833091050CF060C0009719F02A
:1001A0000197B9F05BC08AE390E0FC018081482FA1
:1001B0008A81282F30E081E090E002C0880F991FEB
:1001C0002A95E2F7242F282B8AE390E0FC01208374
:1001D00042C087E390E0FC018081482F8A81282F6C
:1001E00030E081E090E002C0880F991F2A95E2F785
:1001F000242F282B87E390E0FC0120832CC084E38C
:1002000090E0FC018081482F8A81282F30E081E036
:1002100090E002C0880F991F2A95E2F7242F282B1F
:1002200084E390E0FC01208316C081E390E0FC01B0
:100230008081482F8A81282F30E081E090E002C041
:10024000880F991F2A95E2F7242F282B81E390E04D
:10025000FC012083000002C0000001C0000000007B
:100260000F900F900F90DF91CF910895CF93DF9370
:1002700000D00F92CDB7DEB789836A834B838B8121
:10028000882F90E0009721F0019709F475C0E7C02E
:100290008981882F90E08330910509F455C084301E
:1002A00091050CF0D9C082309105B9F183309105E8
:1002B0000CF0D2C0009719F00197C1F0CDC08BE3CC
:1002C00090E0FC018081482F8A81282F30E081E076
:1002D00090E002C0880F991F2A95E2F78095242F9D
:1002E00028238BE390E0FC01208345C088E390E065
:1002F000FC018081482F8A81282F30E081E090E046
:1003000002C0880F991F2A95E2F78095242F282391
:1003100088E390E0FC0120832EC085E390E0FC019F
:100320008081482F8A81282F30E081E090E002C050
:10033000880F991F2A95E2F78095242F282385E3BB
:1003400090E0FC01208317C082E390E0FC018081F3
:10035000482F8A81282F30E081E090E002C0880F8A
:10036000991F2A95E2F78095242F282382E390E0B5
:10037000FC012083000070C08981882F90E08330C9
:10038000910509F452C0843091050CF067C08230A9
:100390009105A9F1833091050CF060C0009719F028
:1003A0000197B9F05BC08BE390E0FC018081482F9E
:1003B0008A81282F30E081E090E002C0880F991FE9
:1003C0002A95E2F7242F282B8BE390E0FC01208371
:1003D00042C088E390E0FC018081482F8A81282F69
:1003E00030E081E090E002C0880F991F2A95E2F783
:1003F000242F282B88E390E0FC0120832CC085E388
:1004000090E0FC018081482F8A81282F30E081E034
:1004100090E002C0880F991F2A95E2F7242F282B1D
:1004200085E390E0FC01208316C082E390E0FC01AC
:100430008081482F8A81282F30E081E090E002C03F
:10044000880F991F2A95E2F7242F282B82E390E04A
:10045000FC012083000002C0000001C00000000079
:100460000F900F900F90DF91CF910895CF93DF936E
:1004700000D0CDB7DEB789836A838981882F90E069
:100480008330910509F452C0843091050CF064C0AA
:1004900082309105A9F1833091050CF05DC0009781
:1004A00019F00197B9F058C08BE390E0FC0180810E
:1004B000482F8A81282F30E081E090E002C0880F29
:1004C000991F2A95E2F7242F28278BE390E0FC015F
:1004D000208342C088E390E0FC018081482F8A811C
:1004E000282F30E081E090E002C0880F991F2A9504
:1004F000E2F7242F282788E390E0FC0120832CC01A
:1005000085E390E0FC018081482F8A81282F30E02C
:1005100081E090E002C0880F991F2A95E2F7242F0E
:10052000282785E390E0FC01208316C082E390E059
:10053000FC018081482F8A81282F30E081E090E003
:1005400002C0880F991F2A95E2F7242F282782E3FB
:1005500090E0FC012083000000000F900F90DF91DD
:10056000CF910895CF93DF9300D000D0CDB7DEB701
:1005700089836A835C834B838981882F90E08330F1
:10058000910509F44FC0843091050CF060C08230B1
:10059000910599F1833091050CF059C0009719F03D
:1005A0000197B1F054C089E390E0FC018081882F6D
:1005B00090E02A81222F30E002C0959587952A95F8
:1005C000E2F7282F21708B819C81FC0120833FC0A2
:1005D00086E390E0FC018081882F90E02A81222F21
:1005E00030E002C0959587952A95E2F7282F217073
:1005F0008B819C81FC0120832AC083E390E0FC0175
:100600008081882F90E02A81222F30E002C09595CA
:1006100087952A95E2F7282F21708B819C81FC0118
:10062000208315C080E390E0FC018081882F90E05A
:100630002A81222F30E002C0959587952A95E2F70E
:10064000282F21708B819C81FC01208300000000F9
:100650000F900F900F900F90DF91CF910895CF934F
:10066000DF9300D0CDB7DEB789836A838981882F75
:1006700090E08330910501F1843091051CF58230C2
:100680009105A1F083309105ECF4009719F00197E2
:1006900039F018C08BE390E02A81FC01208312C05E
:1006A00088E390E02A81FC0120830CC085E390E080
:1006B0002A81FC01208306C082E390E02A81FC01AC
:1006C0002083000000000F900F90DF91CF910895DC
:1006D000CF93DF9300D0CDB7DEB789836A8389815A
:1006E000882F90E08330910501F1843091051CF54D
:1006F00082309105A1F083309105ECF4009719F058
:10070000019739F018C08BE390E02A81FC01208327
:1007100012C088E390E02A81FC0120830CC085E3AD
:1007200090E02A81FC01208306C082E390E02A81C8
:10073000FC012083000000000F900F90DF91CF910B
:100740000895CF93DF930F92CDB7DEB78983898168
:10075000882F90E08330910561F1843091059CF5FC
:1007600082309105E1F0833091056CF5009719F026
:10077000019759F028C08BE390E0FC0120818BE3C6
:1007800090E02095FC0120831EC088E390E0FC01EE
:10079000208188E390E02095FC01208314C085E34C
:1007A00090E0FC01208185E390E02095FC0120830E
:1007B0000AC082E390E0FC01208182E390E0209572
:1007C000FC012083000000000F90DF91CF9108957D
:1007D000CF93DF9300D00F92CDB7DEB789837B83B1
:1007E0006A838981882F90E08330910549F18430B4
:1007F00091057CF582309105D1F0833091054CF55F
:10080000009719F0019751F024C08BE390E0FC01B0
:1008100020818A819B81FC0120831BC088E390E0BA
:10082000FC0120818A819B81FC01208312C085E329
:1008300090E0FC0120818A819B81FC01208309C01A
:1008400082E390E0FC0120818A819B81FC0120836E
:10085000000000000F900F900F90DF91CF9108954E
:10086000CF93DF9300D0CDB7DEB789836A838981C8
:10087000882F90E08330910509F452C084309105AF
:100880000CF064C082309105A9F1833091050CF021
:100890005DC0009719F00197B9F058C08BE390E064
:1008A000FC018081482F8A81282F30E081E090E090
:1008B00002C0880F991F2A95E2F7242F282B8BE37B
:1008C00090E0FC01208342C088E390E0FC0180813D
:1008D000482F8A81282F30E081E090E002C0880F05
:1008E000991F2A95E2F7242F282B88E390E0FC013A
:1008F00020832CC085E390E0FC018081482F8A8111
:10090000282F30E081E090E002C0880F991F2A95DF
:10091000E2F7242F282B85E390E0FC01208316C00A
:1009200082E390E0FC018081482F8A81282F30E00B
:1009300081E090E002C0880F991F2A95E2F7242FEA
:10094000282B82E390E0FC012083000000000F9040
:100950000F90DF91CF910895CF93DF93CDB7DEB79E
:10096000A2970FB6F894DEBF0FBECDBF41E061E0A5
:1009700081E00E94360041E062E081E00E943600A2
:1009800041E063E081E00E94360041E064E080E005
:100990000E94360041E065E080E00E94360041E0C0
:1009A00066E080E00E94360041E067E080E00E945F
:1009B000360080E090E0A8ECB2E489839A83AB83B0
:1009C000BC8320E030E04AE755E469817A818B817D
:1009D0009C810E944F0D6B8B7C8B8D8B9E8B8B89AA
:1009E0009C89AD89BE898D839E83AF83B88720E0C3
:1009F00030E040E85FE36D817E818F8198850E94C1
:100A0000C90C88232CF481E090E09A87898754C030
:100A100020E03FEF4FE757E46D817E818F8198851D
:100A20000E944A0D1816D4F520E030E040E251E46F
:100A300069817A818B819C810E944F0D6F8B788FA9
:100A4000898F9A8F8F89988DA98DBA8D8F87988B72
:100A5000A98BBA8B6F85788989899A890E94CE0C77
:100A60006B8F7C8F8D8F9E8FAB8DBC8DBA87A98746
:100A700010C080E991E09C878B878B859C850197CE
:100A8000F1F79C878B87000089859A8501979A8763
:100A9000898789859A85892B61F719C06D817E8147
:100AA0008F8198850E94CE0C6F8F78A389A39AA31B
:100AB0008F8D98A19A87898789859A859E878D874A
:100AC0008D859E850197F1F79E878D87000082E0D6
:100AD0000E94860583E30E94860582E30E948605C4
:100AE00088E20E9486058CE00E94860581E00E94D3
:100AF000860586E00E9486050000A2960FB6F8944F
:100B0000DEBF0FBECDBFDF91CF910895CF93DF93AE
:100B1000CDB7DEB7C756D1090FB6F894DEBF0FBE0A
:100B2000CDBF8BA740E061E081E00E94360140E04C
:100B300062E081E00E94360140E063E081E00E94D3
:100B400036018BA5282F207F8BE390E0DC018C9170
:100B50008F70282B8BE390E0FC01208341E063E061
:100B600081E00E94360180E090E0A0E8BFE38D8F35
:100B70009E8FAF8FB8A320E030E04AE755E46D8D3B
:100B80007E8D8F8D98A10E944F0D68AF79AF8AAF8F
:100B90009BAF88AD99ADAAADBBAD89A39AA3ABA31A
:100BA000BCA320E030E040E85FE369A17AA18BA11B
:100BB0009CA10E94C90C88232CF481E090E09EA3A4
:100BC0008DA35DC020E03FEF4FE757E469A17AA114
:100BD0008BA19CA10E944A0D18160CF03EC020E08B
:100BE00030E040E251E46D8D7E8D8F8D98A10E94A2
:100BF0004F0D6CAF7DAF8EAF9FAF8CAD9DADAEADE9
:100C0000BFAD8CAB9DABAEABBFAB6CA97DA98EA9C4
:100C10009FA90E94CE0C24966CAF7DAF8EAF9FAF84
:100C200024972296AEADBFAD2297BEA3ADA310C050
:100C300080E991E098A78FA38FA198A50197F1F77C
:100C400098A78FA300008DA19EA101979EA38DA3BD
:100C50008DA19EA1892B61F71DC069A17AA18BA1ED
:100C60009CA10E94CE0C28966CAF7DAF8EAF9FAF3B
:100C700028972696EEADFFAD2697FEA3EDA38DA196
:100C80009EA19AA789A789A59AA50197F1F79AA786
:100C900089A7000040E063E081E00E9436018BA557
:100CA000882F90E082959295907F9827807F982753
:100CB000282F8BE390E0DC018C918F70282B8BE345
:100CC00090E0FC01208341E063E081E00E94360176
:100CD00080E090E0A0E8BFE38F87988BA98BBA8B68
:100CE00020E030E04AE755E46F85788989899A8960
:100CF0000E944F0D2C966CAF7DAF8EAF9FAF2C979F
:100D00002C968CAD9DADAEADBFAD2C978B8B9C8BD7
:100D1000AD8BBE8B20E030E040E85FE36B897C89DF
:100D20008D899E890E94C90C88232CF481E090E073
:100D3000988F8F8B61C020E03FEF4FE757E46B89BE
:100D40007C898D899E890E944A0D18160CF042C03C
:100D500020E030E040E251E46F85788989899A8902
:100D60000E944F0D60966CAF7DAF8EAF9FAF6097C6
:100D700060968CAD9DADAEADBFAD609788AB99ABC5
:100D8000AAABBBAB68A979A98AA99BA90E94CE0C82
:100D900064966CAF7DAF8EAF9FAF64976296AEAD39
:100DA000BFAD6297B88FAF8B10C080E991E09A8F8A
:100DB000898F898D9A8D0197F1F79A8F898F00001D
:100DC0008F89988D0197988F8F8B8F89988D892B1C
:100DD00061F71DC06B897C898D899E890E94CE0C2C
:100DE00068966CAF7DAF8EAF9FAF68976696EEAD9D
:100DF000FFAD6697F88FEF8B8F89988D9C8F8B8FC7
:100E00008B8D9C8D0197F1F79C8F8B8F000040E0BC
:100E100063E081E00E94360180E090E0A0EAB0E467
:100E200089839A83AB83BC8320E030E04AE755E4B2
:100E300069817A818B819C810E944F0D6C966CAF89
:100E40007DAF8EAF9FAF6C976C968CAD9DADAEAD08
:100E5000BFAD6C978D839E83AF83B88720E030E071
:100E600040E85FE36D817E818F8198850E94C90C87
:100E700088232CF481E090E09A87898761C020E084
:100E80003FEF4FE757E46D817E818F8198850E9407
:100E90004A0D18160CF042C020E030E040E251E468
:100EA00069817A818B819C810E944F0DA0966CAFE5
:100EB0007DAF8EAF9FAFA097A0968CAD9DADAEAD30
:100EC000BFADA0978CA79DA7AEA7BFA76CA57DA51A
:100ED0008EA59FA50E94CE0CA4966CAF7DAF8EAF61
:100EE0009FAFA497A296AEADBFADA297BA87A987D0
:100EF00010C080E991E09C878B878B859C8501974A
:100F0000F1F79C878B87000089859A8501979A87DE
:100F1000898789859A85892B61F71DC06D817E81BE
:100F20008F8198850E94CE0CA8966CAF7DAF8EAF56
:100F30009FAFA897A696EEADFFADA697FA87E98773
:100F400089859A859E878D878D859E850197F1F786
:100F50009E878D8700000000C959DF4F0FB6F894B7
:100F6000DEBF0FBECDBFDF91CF910895CF93DF934A
:100F7000CDB7DEB7C756D1090FB6F894DEBF0FBEA6
:100F8000CDBF8BA741E061E081E00E94360140E0E7
:100F900062E081E00E94360140E063E081E00E946F
:100FA00036018BA5282F207F8BE390E0DC018C910C
:100FB0008F70282B8BE390E0FC01208341E063E0FD
:100FC00081E00E94360180E090E0A0E8BFE38D8FD1
:100FD0009E8FAF8FB8A320E030E04AE755E46D8DD7
:100FE0007E8D8F8D98A10E944F0D68AF79AF8AAF2B
:100FF0009BAF88AD99ADAAADBBAD89A39AA3ABA3B6
:10100000BCA320E030E040E85FE369A17AA18BA1B6
:101010009CA10E94C90C88232CF481E090E09EA33F
:101020008DA35DC020E03FEF4FE757E469A17AA1AF
:101030008BA19CA10E944A0D18160CF03EC020E026
:1010400030E040E251E46D8D7E8D8F8D98A10E943D
:101050004F0D6CAF7DAF8EAF9FAF8CAD9DADAEAD84
:10106000BFAD8CAB9DABAEABBFAB6CA97DA98EA960
:101070009FA90E94CE0C24966CAF7DAF8EAF9FAF20
:1010800024972296AEADBFAD2297BEA3ADA310C0EC
:1010900080E991E098A78FA38FA198A50197F1F718
:1010A00098A78FA300008DA19EA101979EA38DA359
:1010B0008DA19EA1892B61F71DC069A17AA18BA189
:1010C0009CA10E94CE0C28966CAF7DAF8EAF9FAFD7
:1010D00028972696EEADFFAD2697FEA3EDA38DA132
:1010E0009EA19AA789A789A59AA50197F1F79AA722
:1010F00089A7000040E063E081E00E9436018BA5F3
:10110000882F90E082959295907F9827807F9827EE
:10111000282F8BE390E0DC018C918F70282B8BE3E0
:1011200090E0FC01208341E063E081E00E94360111
:1011300080E090E0A0E8BFE38F87988BA98BBA8B03
:1011400020E030E04AE755E46F85788989899A89FB
:101150000E944F0D2C966CAF7DAF8EAF9FAF2C973A
:101160002C968CAD9DADAEADBFAD2C978B8B9C8B73
:10117000AD8BBE8B20E030E040E85FE36B897C897B
:101180008D899E890E94C90C88232CF481E090E00F
:10119000988F8F8B61C020E03FEF4FE757E46B895A
:1011A0007C898D899E890E944A0D18160CF042C0D8
:1011B00020E030E040E251E46F85788989899A899E
:1011C0000E944F0D60966CAF7DAF8EAF9FAF609762
:1011D00060968CAD9DADAEADBFAD609788AB99AB61
:1011E000AAABBBAB68A979A98AA99BA90E94CE0C1E
:1011F00064966CAF7DAF8EAF9FAF64976296AEADD5
:10120000BFAD6297B88FAF8B10C080E991E09A8F25
:10121000898F898D9A8D0197F1F79A8F898F0000B8
:101220008F89988D0197988F8F8B8F89988D892BB7
:1012300061F71DC06B897C898D899E890E94CE0CC7
:1012400068966CAF7DAF8EAF9FAF68976696EEAD38
:10125000FFAD6697F88FEF8B8F89988D9C8F8B8F62
:101260008B8D9C8D0197F1F79C8F8B8F000040E058
:1012700063E081E00E94360180E090E0A0EAB0E403
:1012800089839A83AB83BC8320E030E04AE755E44E
:1012900069817A818B819C810E944F0D6C966CAF25
:1012A0007DAF8EAF9FAF6C976C968CAD9DADAEADA4
:1012B000BFAD6C978D839E83AF83B88720E030E00D
:1012C00040E85FE36D817E818F8198850E94C90C23
:1012D00088232CF481E090E09A87898761C020E020
:1012E0003FEF4FE757E46D817E818F8198850E94A3
:1012F0004A0D18160CF042C020E030E040E251E404
:1013000069817A818B819C810E944F0DA0966CAF80
:101310007DAF8EAF9FAFA097A0968CAD9DADAEADCB
:10132000BFADA0978CA79DA7AEA7BFA76CA57DA5B5
:101330008EA59FA50E94CE0CA4966CAF7DAF8EAFFC
:101340009FAFA497A296AEADBFADA297BA87A9876B
:1013500010C080E991E09C878B878B859C850197E5
:10136000F1F79C878B87000089859A8501979A877A
:10137000898789859A85892B61F71DC06D817E815A
:101380008F8198850E94CE0CA8966CAF7DAF8EAFF2
:101390009FAFA897A696EEADFFADA697FA87E9870F
:1013A00089859A859E878D878D859E850197F1F722
:1013B0009E878D8700000000C959DF4F0FB6F89453
:1013C000DEBF0FBECDBFDF91CF910895CF93DF93E6
:1013D000CDB7DEB781E00E9486050000DF91CF9196
:1013E0000895CF93DF93CDB7DEB7A4970FB6F894E7
:1013F000DEBF0FBECDBF988B8F8799C080E090E095
:10140000A0E8BFE389839A83AB83BC8320E030E00C
:101410004AE755E469817A818B819C810E944F0D56
:101420006D8B7E8B8F8B988F8D899E89AF89B88DC0
:101430008D839E83AF83B88720E030E040E85FE390
:101440006D817E818F8198850E94C90C88232CF440
:1014500081E090E09A87898754C020E03FEF4FE712
:1014600057E46D817E818F8198850E944A0D181600
:10147000D4F520E030E040E251E469817A818B814B
:101480009C810E944F0D698F7A8F8B8F9C8F898DE5
:101490009A8DAB8DBC8D898B9A8BAB8BBC8B6989FC
:1014A0007A898B899C890E94CE0C6D8F7E8F8F8F5D
:1014B00098A3AD8DBE8DBA87A98710C080E991E051
:1014C0009C878B878B859C850197F1F79C878B8701
:1014D000000089859A8501979A87898789859A85E9
:1014E000892B61F719C06D817E818F8198850E945B
:1014F000CE0C69A37AA38BA39CA3E9A1FAA1FA87D6
:10150000E98789859A859E878D878D859E85019738
:10151000F1F79E878D8700008F859889DC018C917B
:101520000E94B6078F8598890196988B8F878F8543
:101530009889FC018081882309F060CF00000000B9
:10154000A4960FB6F894DEBF0FBECDBFDF91CF914A
:101550000895CF93DF93CDB7DEB762970FB6F894B7
:10156000DEBF0FBECDBF6B877C878D879E878B8547
:101570009C85AD85BE858F87988BA98BBA8B2AE019
:1015800030E0CE010196AC016F85788989899A890E
:101590000E94E40DCE0101960E94F10900006296BE
:1015A0000FB6F894DEBF0FBECDBFDF91CF91089587
:1015B000CF93DF93CDB7DEB741E062E082E00E94D7
:1015C00036000000DF91CF910895CF93DF93CDB720
:1015D000DEB741E062E082E00E9436010000DF9168
:1015E000CF910895CF93DF93CDB7DEB740E062E0AF
:1015F00082E00E9436010000DF91CF910895CF93E1
:10160000DF93CDB7DEB762E082E00E9436020000D1
:10161000DF91CF910895CF93DF93CDB7DEB741E04F
:1016200067E082E00E9436000000DF91CF910895CC
:10163000CF93DF93CDB7DEB741E067E082E00E9451
:1016400036010000DF91CF910895CF93DF93CDB79E
:10165000DEB740E067E082E00E9436010000DF91E3
:10166000CF910895CF93DF93CDB7DEB767E082E0E7
:101670000E9436020000DF91CF910895CF93DF934F
:10168000CDB7DEB741E063E083E00E9436000000A2
:10169000DF91CF910895CF93DF93CDB7DEB741E0CF
:1016A00063E083E00E9436010000DF91CF9108954E
:1016B000CF93DF93CDB7DEB740E063E083E00E94D5
:1016C00036010000DF91CF910895CF93DF93CDB71E
:1016D000DEB763E083E00E9436020000DF91CF9125
:1016E0000895CF93DF93CDB7DEB787E390E0FC0199
:1016F000208187E390E02F7DFC01208387E390E049
:10170000FC01208187E390E02064FC01208387E3D3
:1017100090E0FC01208187E390E02F77FC0120839B
:1017200087E390E0FC01208187E390E02F7EFC01BD
:1017300020838DE290E0FC0120818DE290E02F7EFD
:10174000FC0120838DE290E0FC0120818DE290E09D
:101750002064FC0120830000DF91CF910895CF9396
:10176000DF930F92CDB7DEB789838FE290E02981B6
:10177000FC01208300008EE290E0FC018081881F44
:101780008827881F882F90E081709927019799F703
:10179000000000000F90DF91CF910895CF93DF9369
:1017A00000D0CDB7DEB79A83898300008EE290E047
:1017B000FC018081881F8827881F882F90E0817016
:1017C0009927019799F78FE290E0FC0120818981A8
:1017D0009A81FC01208300000F900F90DF91CF9140
:1017E0000895CF93DF930F92CDB7DEB789838981B8
:1017F000882349F488E390E0FC01208188E390E0AD
:101800002F7EFC01208300000F90DF91CF9108957F
:10181000CF93DF9300D0CDB7DEB78BE290E022E02C
:10182000FC0120831A8219828AE290E028E1FC01FF
:10183000208380E490E026E8FC01208387E690E0A6
:101840009A83898389E290E02981FC012083898140
:101850009A81292F332780E490E0FC012083000047
:101860000F900F90DF91CF910895CF93DF930F9258
:10187000CDB7DEB789838CE290E02981FC0120831B
:1018800000008BE290E0FC01808182958695869530
:101890008370882F90E081709927019791F700005D
:1018A00000000F90DF91CF910895CF93DF93CDB7D4
:1018B000DEB700008BE290E0FC018081881F882762
:1018C000881F882F90E081709927019799F78CE203
:1018D00090E0FC018081DF91CF910895CF93DF9359
:1018E00000D0CDB7DEB79A83898300008BE290E009
:1018F000FC018081881F8827881F882F90E08170D5
:101900009927019799F78CE290E0FC012081898169
:101910009A81FC01208381E00F900F90DF91CF919D
:101920000895CF93DF930F92CDB7DEB70E94D80A08
:101930000E940B0B0E943E0B0E94080C0E94710B30
:101940001982CE0101960E94CE0B8981813019F453
:101950000E94E50AF6CF8981823019F40E94180BA3
:10196000F0CF8981833019F40E944B0BEACF898133
:10197000843019F40E94F20AE4CF8981853019F489
:101980000E94250BDECF89818630D9F60E94580B44
:10199000D8CF0E94FD0C08F481E008950E94290D23
:1019A00088F09F5798F0B92F9927B751B0F0E1F020
:1019B000660F771F881F991F1AF0BA95C9F714C0D0
:1019C000B13091F00E94430DB1E008950C94430DA5
:1019D000672F782F8827B85F39F0B93FCCF3869509
:1019E00077956795B395D9F73EF490958095709566
:1019F00061957F4F8F4F9F4F0895990F0008550FA6
:101A0000AA0BE0E8FEEF16161706E807F907C0F084
:101A100012161306E407F50798F0621B730B840B8C
:101A2000950B39F40A2661F0232B242B252B21F466
:101A300008950A2609F4A140A6958FEF811D811D06
:101A4000089557FD9058440F551F59F05F3F71F0AE
:101A50004795880F97FB991F61F09F3F79F0879515
:101A60000895121613061406551FF2CF4695F1DF9E
:101A700008C0161617061806991FF1CF869571052E
:101A8000610508940895E894BB2766277727CB0162
:101A900097F908950E94FD0C08F48FEF08950E94B5
:101AA000620D0C94D30D0E94C50D38F00E94CC0D30
:101AB00020F0952311F00C94BC0D0C94C20D112450
:101AC0000C94440D0E94210D70F3959FC1F3950F66
:101AD00050E0551F629FF001729FBB27F00DB11DB2
:101AE000639FAA27F00DB11DAA1F649F6627B00D42
:101AF000A11D661F829F2227B00DA11D621F739F2B
:101B0000B00DA11D621F839FA00D611D221F749F38
:101B10003327A00D611D231F849F600D211D822F7F
:101B2000762F6A2F11249F5750409AF0F1F08823A6
:101B30004AF0EE0FFF1FBB1F661F771F881F9150D3
:101B40005040A9F79E3F510580F00C94BC0D0C94B9
:101B5000440D5F3FE4F3983ED4F3869577956795FF
:101B6000B795F795E7959F5FC1F7FE2B880F911DFD
:101B70009695879597F9089597F99F6780E870E0A3
:101B800060E008959FEF80EC089500240A941616F3
:101B9000170618060906089500240A94121613065B
:101BA000140605060895092E0394000C11F48823E9
:101BB00052F0BB0F40F4BF2B11F460FF04C06F5F05
:101BC0007F4F8F4F9F4F08952532310520F42230EB
:101BD00010F00C94EF0DFA011082CA010895BB2792
:101BE0002A3051F4992342F4BDE290958095709586
:101BF00061957F4F8F4F9F4F0C94FF0DBB27FA01CC
:101C0000A62F6217710581059105330B30FB66F035
:101C1000AA27660F771F881F991FAA1FA21710F007
:101C2000A21B63953850A9F7A05DAA3308F0A95DFF
:101C3000A19336F7B111B1931082CA010C94200E12
:101C4000DC01FC01672F71917723E1F7329704C023
:101C50007C916D9370836291AE17BF07C8F30895AE
:041C6000F894FFCF26
:00000001FF
