:100000000C942A000C9447000C9447000C94470071
:100010000C9447000C9447000C9447000C94470044
:100020000C9447000C9447000C9447000C94470034
:100030000C9447000C9447000C9447000C94470024
:100040000C9447000C9447000C9447000C94470014
:100050000C94470011241FBECFE5D8E0DEBFCDBF12
:1000600010E0A0E6B0E0EAE5FBE202C005900D92E8
:10007000A037B107D9F720E0A0E7B0E001C01D929A
:10008000AC37B207E1F70E94BE010C94A3150C94A3
:100090000000CF93DF930F92CDB7DEB7898387E25D
:1000A00090E0FC01208187E290E02F77FC01208323
:1000B00087E290E0FC01208187E290E02064FC016F
:1000C000208387E290E0FC01208187E290E02F7D91
:1000D000FC0120838981882F90E0A0E0B0E0883087
:1000E0009105A105B10508F0ECC08B559A4EFC01B5
:1000F0000C94081487E290E0FC01208187E290E0F4
:100100002F7EFC01208387E290E0FC01208187E2C2
:1001100090E0277FFC01208387E290E0FC012081B2
:1001200087E290E02B7FFC01208387E290E0FC01D6
:10013000208187E290E02D7FFC01208387E290E020
:10014000FC01208187E290E02E7FFC012083B9C072
:1001500087E290E0FC01208187E290E02F7EFC01A5
:10016000208387E290E0FC01208187E290E0277FF6
:10017000FC01208387E290E0FC01208187E290E08F
:100180002B7FFC01208387E290E0FC01208187E245
:1001900090E02D7FFC01208387E290E0FC0120812C
:1001A00087E290E02160FC0120838BC087E290E031
:1001B000FC01208187E290E02F7EFC01208387E212
:1001C00090E0FC01208187E290E0277FFC01208302
:1001D00087E290E0FC01208187E290E02B7FFC0128
:1001E000208387E290E0FC01208187E290E022609A
:1001F000FC01208387E290E0FC01208187E290E00F
:100200002E7FFC0120835DC087E290E0FC0120810D
:1002100087E290E02F7EFC01208387E290E0FC01E2
:10022000208187E290E0277FFC01208387E290E035
:10023000FC01208187E290E02B7FFC01208387E294
:1002400090E0FC01208187E290E02260FC012083A5
:1002500087E290E0FC01208187E290E02160FC01D0
:1002600020832FC087E290E0FC01208187E290E0AC
:100270002F7EFC01208387E290E0FC01208187E251
:1002800090E0277FFC01208387E290E0FC01208141
:1002900087E290E02460FC01208387E290E0FC018B
:1002A000208187E290E02D7FFC01208387E290E0AF
:1002B000FC01208187E290E02E7FFC01208301C0B9
:1002C000000086E290E0FC01208186E290E020625E
:1002D000FC01208386E290E0FC01208186E290E030
:1002E0002460FC01208386E290E0FC01208186E20C
:1002F00090E02260FC01208386E290E0FC012081F6
:1003000086E290E02160FC01208386E290E0FC011F
:10031000208186E290E02068FC01208300000F909D
:10032000DF91CF910895CF93DF9300D0CDB7DEB7A3
:100330001A82198286E290E0FC01208186E290E038
:100340002064FC012083000086E290E0FC018081B3
:1003500082958F70882F90E0817099270197A1F77F
:1003600084E290E0FC01808191819A838983898174
:100370009A810F900F90DF91CF910895CF93DF93E3
:100380000F92CDB7DEB70E944E1381E089830E94A1
:10039000BA1080E00E9423110E9496138053898333
:1003A00089810E94EB10F8CFCF93DF9300D000D06B
:1003B000CDB7DEB78B836C838B81869586958695CA
:1003C00089838B8187708A838C81882F90E0009746
:1003D00021F0019709F475C0E7C08981882F90E06A
:1003E0008330910509F455C0843091050CF0D9C0D3
:1003F00082309105B9F1833091050CF0D2C000979D
:1004000019F00197C1F0CDC08AE390E0FC01808132
:10041000482F8A81282F30E081E090E002C0880FC9
:10042000991F2A95E2F78095242F28238AE390E0EC
:10043000FC01208345C087E390E0FC018081482FC8
:100440008A81282F30E081E090E002C0880F991F58
:100450002A95E2F78095242F282387E390E0FC017A
:1004600020832EC084E390E0FC018081482F8A81A4
:10047000282F30E081E090E002C0880F991F2A9574
:10048000E2F78095242F282384E390E0FC01208369
:1004900017C081E390E0FC018081482F8A81282FDA
:1004A00030E081E090E002C0880F991F2A95E2F7C2
:1004B0008095242F282381E390E0FC012083000015
:1004C00070C08981882F90E08330910509F452C073
:1004D000843091050CF067C082309105A9F183301A
:1004E00091050CF060C0009719F00197B9F05BC05E
:1004F0008AE390E0FC018081482F8A81282F30E038
:1005000081E090E002C0880F991F2A95E2F7242F1E
:10051000282B8AE390E0FC01208342C087E390E02F
:10052000FC018081482F8A81282F30E081E090E013
:1005300002C0880F991F2A95E2F7242F282B87E302
:1005400090E0FC0120832CC084E390E0FC018081DA
:10055000482F8A81282F30E081E090E002C0880F88
:10056000991F2A95E2F7242F282B84E390E0FC01C1
:10057000208316C081E390E0FC018081482F8A81AE
:10058000282F30E081E090E002C0880F991F2A9563
:10059000E2F7242F282B81E390E0FC012083000068
:1005A00002C0000001C0000000000F900F900F90EB
:1005B0000F90DF91CF910895CF93DF9300D000D0BB
:1005C000CDB7DEB78B836C838B81869586958695B8
:1005D00089838B8187708A838C81882F90E0009734
:1005E00021F0019709F475C0E7C08981882F90E058
:1005F0008330910509F455C0843091050CF0D9C0C1
:1006000082309105B9F1833091050CF0D2C000978A
:1006100019F00197C1F0CDC08BE390E0FC0180811F
:10062000482F8A81282F30E081E090E002C0880FB7
:10063000991F2A95E2F78095242F28238BE390E0D9
:10064000FC01208345C088E390E0FC018081482FB5
:100650008A81282F30E081E090E002C0880F991F46
:100660002A95E2F78095242F282388E390E0FC0167
:1006700020832EC085E390E0FC018081482F8A8191
:10068000282F30E081E090E002C0880F991F2A9562
:10069000E2F78095242F282385E390E0FC01208356
:1006A00017C082E390E0FC018081482F8A81282FC7
:1006B00030E081E090E002C0880F991F2A95E2F7B0
:1006C0008095242F282382E390E0FC012083000002
:1006D00070C08981882F90E08330910509F452C061
:1006E000843091050CF067C082309105A9F1833008
:1006F00091050CF060C0009719F00197B9F05BC04C
:100700008BE390E0FC018081482F8A81282F30E024
:1007100081E090E002C0880F991F2A95E2F7242F0C
:10072000282B8BE390E0FC01208342C088E390E01B
:10073000FC018081482F8A81282F30E081E090E001
:1007400002C0880F991F2A95E2F7242F282B88E3EF
:1007500090E0FC0120832CC085E390E0FC018081C7
:10076000482F8A81282F30E081E090E002C0880F76
:10077000991F2A95E2F7242F282B85E390E0FC01AE
:10078000208316C082E390E0FC018081482F8A819B
:10079000282F30E081E090E002C0880F991F2A9551
:1007A000E2F7242F282B82E390E0FC012083000055
:1007B00002C0000001C0000000000F900F900F90D9
:1007C0000F90DF91CF910895CF93DF9300D000D0A9
:1007D000CDB7DEB78C838C818695869586958A8386
:1007E0008C8187708B8319828A81882F90E0833077
:1007F000910509F443C0843091050CF050C082305B
:10080000910559F1833091050CF049C0009719F01A
:10081000019791F044C089E390E0FC018081882F2A
:1008200090E02B81222F30E002C0959587952A9584
:10083000E2F78170898333C086E390E0FC01808118
:10084000882F90E02B81222F30E002C0959587956C
:100850002A95E2F78170898322C083E390E0FC014E
:100860008081882F90E02B81222F30E002C0959567
:1008700087952A95E2F78170898311C080E390E023
:10088000FC018081882F90E02B81222F30E002C074
:10089000959587952A95E2F7817089830000898173
:1008A0000F900F900F900F90DF91CF910895CF93FD
:1008B000DF9300D00F92CDB7DEB789836A834B8375
:1008C0008B81882F90E0009721F0019709F475C083
:1008D000E7C08981882F90E08330910509F455C0E5
:1008E000843091050CF0D9C082309105B9F1833084
:1008F00091050CF0D2C0009719F00197C1F0CDC05E
:100900008AE390E0FC018081482F8A81282F30E023
:1009100081E090E002C0880F991F2A95E2F7809548
:10092000242F28238AE390E0FC01208345C087E33D
:1009300090E0FC018081482F8A81282F30E081E0FF
:1009400090E002C0880F991F2A95E2F78095242F26
:10095000282387E390E0FC0120832EC084E390E00D
:10096000FC018081482F8A81282F30E081E090E0CF
:1009700002C0880F991F2A95E2F78095242F28231B
:1009800084E390E0FC01208317C081E390E0FC0148
:100990008081482F8A81282F30E081E090E002C0DA
:1009A000880F991F2A95E2F78095242F282381E349
:1009B00090E0FC012083000070C08981882F90E0C6
:1009C0008330910509F452C0843091050CF067C062
:1009D00082309105A9F1833091050CF060C0009739
:1009E00019F00197B9F05BC08AE390E0FC018081C7
:1009F000482F8A81282F30E081E090E002C0880FE4
:100A0000991F2A95E2F7242F282B8AE390E0FC0116
:100A1000208342C087E390E0FC018081482F8A81D7
:100A2000282F30E081E090E002C0880F991F2A95BE
:100A3000E2F7242F282B87E390E0FC0120832CC0D1
:100A400084E390E0FC018081482F8A81282F30E0E8
:100A500081E090E002C0880F991F2A95E2F7242FC9
:100A6000282B84E390E0FC01208316C081E390E012
:100A7000FC018081482F8A81282F30E081E090E0BE
:100A800002C0880F991F2A95E2F7242F282B81E3B3
:100A900090E0FC012083000002C0000001C00000C3
:100AA00000000F900F900F90DF91CF910895CF939A
:100AB000DF9300D00F92CDB7DEB789836A834B8373
:100AC0008B81882F90E0009721F0019709F475C081
:100AD000E7C08981882F90E08330910509F455C0E3
:100AE000843091050CF0D9C082309105B9F1833082
:100AF00091050CF0D2C0009719F00197C1F0CDC05C
:100B00008BE390E0FC018081482F8A81282F30E020
:100B100081E090E002C0880F991F2A95E2F7809546
:100B2000242F28238BE390E0FC01208345C088E339
:100B300090E0FC018081482F8A81282F30E081E0FD
:100B400090E002C0880F991F2A95E2F78095242F24
:100B5000282388E390E0FC0120832EC085E390E009
:100B6000FC018081482F8A81282F30E081E090E0CD
:100B700002C0880F991F2A95E2F78095242F282319
:100B800085E390E0FC01208317C082E390E0FC0144
:100B90008081482F8A81282F30E081E090E002C0D8
:100BA000880F991F2A95E2F78095242F282382E346
:100BB00090E0FC012083000070C08981882F90E0C4
:100BC0008330910509F452C0843091050CF067C060
:100BD00082309105A9F1833091050CF060C0009737
:100BE00019F00197B9F05BC08BE390E0FC018081C4
:100BF000482F8A81282F30E081E090E002C0880FE2
:100C0000991F2A95E2F7242F282B8BE390E0FC0113
:100C1000208342C088E390E0FC018081482F8A81D4
:100C2000282F30E081E090E002C0880F991F2A95BC
:100C3000E2F7242F282B88E390E0FC0120832CC0CE
:100C400085E390E0FC018081482F8A81282F30E0E5
:100C500081E090E002C0880F991F2A95E2F7242FC7
:100C6000282B85E390E0FC01208316C082E390E00E
:100C7000FC018081482F8A81282F30E081E090E0BC
:100C800002C0880F991F2A95E2F7242F282B82E3B0
:100C900090E0FC012083000002C0000001C00000C1
:100CA00000000F900F900F90DF91CF910895CF9398
:100CB000DF9300D0CDB7DEB789836A838981882F1F
:100CC00090E08330910509F452C0843091050CF016
:100CD00064C082309105A9F1833091050CF05DC0AC
:100CE000009719F00197B9F058C08BE390E0FC0130
:100CF0008081482F8A81282F30E081E090E002C077
:100D0000880F991F2A95E2F7242F28278BE390E07C
:100D1000FC01208342C088E390E0FC018081482FE1
:100D20008A81282F30E081E090E002C0880F991F6F
:100D30002A95E2F7242F282788E390E0FC012083FE
:100D40002CC085E390E0FC018081482F8A81282F08
:100D500030E081E090E002C0880F991F2A95E2F709
:100D6000242F282785E390E0FC01208316C082E32E
:100D700090E0FC018081482F8A81282F30E081E0BB
:100D800090E002C0880F991F2A95E2F7242F2827A8
:100D900082E390E0FC012083000000000F900F90A0
:100DA000DF91CF910895CF93DF9300D00F92CDB70D
:100DB000DEB78A836B8319828A81882F90E0833023
:100DC000910509F443C0843091050CF050C0823085
:100DD000910559F1833091050CF049C0009719F045
:100DE000019791F044C089E390E0FC018081882F55
:100DF00090E02B81222F30E002C0959587952A95AF
:100E0000E2F78170898333C086E390E0FC01808142
:100E1000882F90E02B81222F30E002C09595879596
:100E20002A95E2F78170898322C083E390E0FC0178
:100E30008081882F90E02B81222F30E002C0959591
:100E400087952A95E2F78170898311C080E390E04D
:100E5000FC018081882F90E02B81222F30E002C09E
:100E6000959587952A95E2F781708983000089819D
:100E70000F900F900F90DF91CF910895CF93DF9354
:100E800000D0CDB7DEB789836A838A81882F90E04E
:100E9000009719F0019761F15BC08981882F90E07C
:100EA00083309105F9F0843091050CF04EC082300A
:100EB000910599F0833091050CF047C0009719F027
:100EC000019731F042C08AE390E0FC0110820FC02C
:100ED00087E390E0FC0110820AC084E390E0FC010B
:100EE000108205C081E390E0FC01108200002DC05B
:100EF0008981882F90E08330910501F1843091053C
:100F000034F582309105A1F08330910504F5009706
:100F100019F0019739F01BC08AE390E02FEFFC0134
:100F2000208312C087E390E02FEFFC0120830CC0E8
:100F300084E390E02FEFFC01208306C081E390E082
:100F40002FEFFC012083000002C0000001C0000060
:100F500000000F900F90DF91CF910895CF93DF9312
:100F600000D0CDB7DEB789836A8300000F900F9061
:100F7000DF91CF910895CF93DF9300D0CDB7DEB747
:100F800089836A8300000F900F90DF91CF910895BD
:100F9000CF93DF930F92CDB7DEB7898380E00F90B8
:100FA000DF91CF910895CF93DF9300D0CDB7DEB717
:100FB00089836A838981882F90E08330910509F4C1
:100FC00052C0843091050CF064C082309105A9F1C3
:100FD000833091050CF05DC0009719F00197B9F0CE
:100FE00058C08BE390E0FC018081482F8A81282F34
:100FF00030E081E090E002C0880F991F2A95E2F767
:10100000242F282B8BE390E0FC01208342C088E34F
:1010100090E0FC018081482F8A81282F30E081E018
:1010200090E002C0880F991F2A95E2F7242F282B01
:1010300088E390E0FC0120832CC085E390E0FC0174
:101040008081482F8A81282F30E081E090E002C023
:10105000880F991F2A95E2F7242F282B85E390E02B
:10106000FC01208316C082E390E0FC018081482FC0
:101070008A81282F30E081E090E002C0880F991F1C
:101080002A95E2F7242F282B82E390E0FC012083AD
:10109000000000000F900F90DF91CF910895CF9343
:1010A000DF93CDB7DEB78FE590E0FC0120818FE5BF
:1010B00090E02068FC0120830000DF91CF9108952B
:1010C000CF93DF93CDB7DEB70E944F088BE590E05A
:1010D000FC0120818BE590E02064FC01208385E504
:1010E00090E0FC01208185E590E02260FC012083F6
:1010F00085E590E0FC01208185E590E02E7FFC01F4
:1011000020830000DF91CF910895CF93DF93CDB777
:10111000DEB70000DF91CF910895CF93DF93CDB775
:10112000DEB70000DF91CF910895CF93DF93CDB765
:10113000DEB740E060E081E00E9457040000DF91EC
:10114000CF910895CF93DF93CDB7DEB760E081E014
:101150000E94D306DF91CF910895CF93DF93CDB74F
:10116000DEB741E064E082E00E94570441E065E0C0
:1011700082E00E94570441E066E082E00E9457044A
:1011800041E067E082E00E94570441E064E082E0D1
:101190000E94570541E065E082E00E94570541E06A
:1011A00066E082E00E94570541E067E082E00E942D
:1011B000570540E060E082E00E94570440E061E0B3
:1011C00082E00E94570440E062E082E00E945704FF
:1011D00040E063E082E00E94570460E082E00E9409
:1011E000D30761E082E00E94D30762E082E00E94C0
:1011F000D30763E082E00E94D3070000DF91CF9124
:101200000895CF93DF93CDB7DEB7A6970FB6F894C6
:10121000DEBF0FBECDBF19821A821B821C8284E002
:101220008A83C8C040E06A8182E00E945705198223
:10123000B5C0698182E00E94D3068B838B818823AD
:1012400009F0A9C08981282F30E08A81882F90E099
:101250000497220F331F220F331F820F931F805AD0
:101260009F4FDC018C918C8305C0698182E00E94D4
:10127000D3068B838B818823C1F380E090E0A0E2CA
:10128000B1E48D839E83AF83B88720E030E04AE7E6
:1012900055E46D817E818F8198850E94C2146F8B89
:1012A000788F898F9A8F8F89988DA98DBA8D89872C
:1012B0009A87AB87BC8720E030E040E85FE3698530
:1012C0007A858B859C850E943C1488232CF481E0D0
:1012D00090E09E878D8754C020E03FEF4FE757E4B2
:1012E00069857A858B859C850E94BD141816D4F576
:1012F00020E030E040E251E46D817E818F8198856D
:101300000E94C2146B8F7C8F8D8F9E8F8B8D9C8DD6
:10131000AD8DBE8D8B8B9C8BAD8BBE8B6B897C8991
:101320008D899E890E9441146F8F78A389A39AA307
:10133000AF8DB8A1BE87AD8710C080E991E0988BD2
:101340008F878F8598890197F1F7988B8F87000099
:101350008D859E8501979E878D878D859E85892B9E
:1013600061F719C069857A858B859C850E94411437
:101370006BA37CA38DA39EA3EBA1FCA1FE87ED87AD
:101380008D859E859A8B898B89899A890197F1F73A
:101390009A8B898B000089818F5F89838981843052
:1013A00008F447CF41E06A8182E00E9457058A81B4
:1013B0008F5F8A838A81883008F434CF8C81A69627
:1013C0000FB6F894DEBF0FBECDBFDF91CF91089569
:1013D000CF93DF93CDB7DEB7C454D1090FB6F894DD
:1013E000DEBF0FBECDBF41E061E081E00E94570447
:1013F00041E062E081E00E94570441E063E081E067
:101400000E94570441E064E080E00E94570441E0FC
:1014100065E080E00E94570441E066E080E00E94C1
:10142000570441E067E080E00E94570480E090E0CC
:10143000A8ECB2E48F87988BA98BBA8B20E030E0C0
:101440004AE755E46F85788989899A890E94C21490
:101450006DA37EA38FA398A78DA19EA1AFA1B8A5D0
:101460008B8B9C8BAD8BBE8B20E030E040E85FE344
:101470006B897C898D899E890E943C1488232CF479
:1014800081E090E0988F8F8B54C020E03FEF4FE7D2
:1014900057E46B897C898D899E890E94BD1418163A
:1014A000D4F520E030E040E251E46F857889898905
:1014B0009A890E94C21469A77AA78BA79CA789A5BD
:1014C0009AA5ABA5BCA589A39AA3ABA3BCA369A10C
:1014D0007AA18BA19CA10E9441146DA77EA78FA722
:1014E00098ABADA5BEA5B88FAF8B10C080E991E0D9
:1014F0009A8F898F898D9A8D0197F1F79A8F898FAD
:1015000000008F89988D0197988F8F8B8F89988D88
:10151000892B61F719C06B897C898D899E890E940E
:10152000411469AB7AAB8BAB9CAB89A99AA9988F14
:101530008F8B8F89988D9C8F8B8F8B8D9C8D019736
:10154000F1F79C8F8B8F000082E00E94640B83E395
:101550000E94640B82E30E94640B88E20E94640B89
:101560008CE00E94640B81E00E94640B86E00E9484
:10157000640B80E090E0A0E2B1E489839A83AB83BE
:10158000BC8320E030E04AE755E469817A818B81B1
:101590009C810E94C2146DAB7EAB8FAB98AF8DA9BE
:1015A0009EA9AFA9B8AD8D839E83AF83B88720E095
:1015B00030E040E85FE36D817E818F8198850E94F5
:1015C0003C1488232CF481E090E09A8789875BC0E3
:1015D00020E03FEF4FE757E46D817E818F81988552
:1015E0000E94BD1418160CF03CC020E030E040E230
:1015F00051E469817A818B819C810E94C21469AF18
:101600007AAF8BAF9CAF89AD9AADABADBCAD8D8FD2
:101610009E8FAF8FB8A36D8D7E8D8F8D98A10E9408
:10162000411421966CAF7DAF8EAF9FAF2197ADADCA
:10163000BEADBA87A98710C080E991E09C878B87EF
:101640008B859C850197F1F79C878B8700008985A6
:101650009A8501979A87898789859A85892B61F769
:101660001DC06D817E818F8198850E9441142596D1
:101670006CAF7DAF8EAF9FAF259723968EAD9FAD9C
:1016800023979A87898789859A859E878D878D85F7
:101690009E850197F1F79E878D8700000000CC5B47
:1016A000DF4F0FB6F894DEBF0FBECDBFDF91CF91F5
:1016B0000895CF93DF93CDB7DEB781E00E94640B2E
:1016C0000000DF91CF910895CF93DF93CDB7DEB7C0
:1016D000C756D1090FB6F894DEBF0FBECDBF8BA79A
:1016E00040E061E081E00E94570540E062E081E077
:1016F0000E94570540E063E081E00E9457058BA5FA
:10170000282F207F8BE390E0DC018C918F70282BB9
:101710008BE390E0FC01208341E063E081E00E94E4
:10172000570580E090E0A0E8BFE38D8F9E8FAF8FDC
:10173000B8A320E030E04AE755E46D8D7E8D8F8DB3
:1017400098A10E94C21468AF79AF8AAF9BAF88ADF1
:1017500099ADAAADBBAD89A39AA3ABA3BCA320E06E
:1017600030E040E85FE369A17AA18BA19CA10E94CF
:101770003C1488232CF481E090E09EA38DA35DC0EF
:1017800020E03FEF4FE757E469A17AA18BA19CA12C
:101790000E94BD1418160CF03EC020E030E040E27C
:1017A00051E46D8D7E8D8F8D98A10E94C2146CAF17
:1017B0007DAF8EAF9FAF8CAD9DADAEADBFAD8CABF1
:1017C0009DABAEABBFAB6CA97DA98EA99FA90E94B2
:1017D000411424966CAF7DAF8EAF9FAF24972296B5
:1017E000AEADBFAD2297BEA3ADA310C080E991E01E
:1017F00098A78FA38FA198A50197F1F798A78FA31A
:1018000000008DA19EA101979EA38DA38DA19EA1F5
:10181000892B61F71DC069A17AA18BA19CA10E94AF
:10182000411428966CAF7DAF8EAF9FAF2897269658
:10183000EEADFFAD2697FEA3EDA38DA19EA19AA7C5
:1018400089A789A59AA50197F1F79AA789A700000A
:1018500040E063E081E00E9457058BA5882F90E06F
:1018600082959295907F9827807F9827282F8BE3E9
:1018700090E0DC018C918F70282B8BE390E0FC01D1
:10188000208341E063E081E00E94570580E090E022
:10189000A0E8BFE38F87988BA98BBA8B20E030E05C
:1018A0004AE755E46F85788989899A890E94C2142C
:1018B0002C966CAF7DAF8EAF9FAF2C972C968CADD6
:1018C0009DADAEADBFAD2C978B8B9C8BAD8BBE8B86
:1018D00020E030E040E85FE36B897C898D899E8958
:1018E0000E943C1488232CF481E090E0988F8F8B29
:1018F00061C020E03FEF4FE757E46B897C898D8919
:101900009E890E94BD1418160CF042C020E030E001
:1019100040E251E46F85788989899A890E94C214CE
:1019200060966CAF7DAF8EAF9FAF609760968CADC9
:101930009DADAEADBFAD609788AB99ABAAABBBAB6D
:1019400068A979A98AA99BA90E94411464966CAFE1
:101950007DAF8EAF9FAF64976296AEADBFAD62971D
:10196000B88FAF8B10C080E991E09A8F898F898DF5
:101970009A8D0197F1F79A8F898F00008F89988D42
:101980000197988F8F8B8F89988D892B61F71DC058
:101990006B897C898D899E890E94411468966CAF01
:1019A0007DAF8EAF9FAF68976696EEADFFAD669741
:1019B000F88FEF8B8F89988D9C8F8B8F8B8D9C8D63
:1019C0000197F1F79C8F8B8F000040E063E081E08E
:1019D0000E94570580E090E0A0E0B0E489839A83FC
:1019E000AB83BC8320E030E04AE755E469817A812B
:1019F0008B819C810E94C2146C966CAF7DAF8EAFC0
:101A00009FAF6C976C968CAD9DADAEADBFAD6C9736
:101A10008D839E83AF83B88720E030E040E85FE3AA
:101A20006D817E818F8198850E943C1488232CF4DF
:101A300081E090E09A87898761C020E03FEF4FE71F
:101A400057E46D817E818F8198850E94BD141816A0
:101A50000CF042C020E030E040E251E469817A813C
:101A60008B819C810E94C214A0966CAF7DAF8EAF1B
:101A70009FAFA097A0968CAD9DADAEADBFADA0972A
:101A80008CA79DA7AEA7BFA76CA57DA58EA59FA57A
:101A90000E944114A4966CAF7DAF8EAF9FAFA49708
:101AA000A296AEADBFADA297BA87A98710C080E954
:101AB00091E09C878B878B859C850197F1F79C87AC
:101AC0008B87000089859A8501979A878987898500
:101AD0009A85892B61F71DC06D817E818F819885E4
:101AE0000E944114A8966CAF7DAF8EAF9FAFA897B0
:101AF000A696EEADFFADA697FA87E98789859A8508
:101B00009E878D878D859E850197F1F79E878D87AE
:101B100000000000C959DF4F0FB6F894DEBF0FBEBA
:101B2000CDBFDF91CF910895CF93DF93CDB7DEB7CF
:101B3000C756D1090FB6F894DEBF0FBECDBF8BA735
:101B400041E061E081E00E94570540E062E081E011
:101B50000E94570540E063E081E00E9457058BA595
:101B6000282F207F8BE390E0DC018C918F70282B55
:101B70008BE390E0FC01208341E063E081E00E9480
:101B8000570580E090E0A0E8BFE38D8F9E8FAF8F78
:101B9000B8A320E030E04AE755E46D8D7E8D8F8D4F
:101BA00098A10E94C21468AF79AF8AAF9BAF88AD8D
:101BB00099ADAAADBBAD89A39AA3ABA3BCA320E00A
:101BC00030E040E85FE369A17AA18BA19CA10E946B
:101BD0003C1488232CF481E090E09EA38DA35DC08B
:101BE00020E03FEF4FE757E469A17AA18BA19CA1C8
:101BF0000E94BD1418160CF03EC020E030E040E218
:101C000051E46D8D7E8D8F8D98A10E94C2146CAFB2
:101C10007DAF8EAF9FAF8CAD9DADAEADBFAD8CAB8C
:101C20009DABAEABBFAB6CA97DA98EA99FA90E944D
:101C3000411424966CAF7DAF8EAF9FAF2497229650
:101C4000AEADBFAD2297BEA3ADA310C080E991E0B9
:101C500098A78FA38FA198A50197F1F798A78FA3B5
:101C600000008DA19EA101979EA38DA38DA19EA191
:101C7000892B61F71DC069A17AA18BA19CA10E944B
:101C8000411428966CAF7DAF8EAF9FAF28972696F4
:101C9000EEADFFAD2697FEA3EDA38DA19EA19AA761
:101CA00089A789A59AA50197F1F79AA789A70000A6
:101CB00040E063E081E00E9457058BA5882F90E00B
:101CC00082959295907F9827807F9827282F8BE385
:101CD00090E0DC018C918F70282B8BE390E0FC016D
:101CE000208341E063E081E00E94570580E090E0BE
:101CF000A0E8BFE38F87988BA98BBA8B20E030E0F8
:101D00004AE755E46F85788989899A890E94C214C7
:101D10002C966CAF7DAF8EAF9FAF2C972C968CAD71
:101D20009DADAEADBFAD2C978B8B9C8BAD8BBE8B21
:101D300020E030E040E85FE36B897C898D899E89F3
:101D40000E943C1488232CF481E090E0988F8F8BC4
:101D500061C020E03FEF4FE757E46B897C898D89B4
:101D60009E890E94BD1418160CF042C020E030E09D
:101D700040E251E46F85788989899A890E94C2146A
:101D800060966CAF7DAF8EAF9FAF609760968CAD65
:101D90009DADAEADBFAD609788AB99ABAAABBBAB09
:101DA00068A979A98AA99BA90E94411464966CAF7D
:101DB0007DAF8EAF9FAF64976296AEADBFAD6297B9
:101DC000B88FAF8B10C080E991E09A8F898F898D91
:101DD0009A8D0197F1F79A8F898F00008F89988DDE
:101DE0000197988F8F8B8F89988D892B61F71DC0F4
:101DF0006B897C898D899E890E94411468966CAF9D
:101E00007DAF8EAF9FAF68976696EEADFFAD6697DC
:101E1000F88FEF8B8F89988D9C8F8B8F8B8D9C8DFE
:101E20000197F1F79C8F8B8F000040E063E081E029
:101E30000E94570580E090E0A0E0B0E489839A8397
:101E4000AB83BC8320E030E04AE755E469817A81C6
:101E50008B819C810E94C2146C966CAF7DAF8EAF5B
:101E60009FAF6C976C968CAD9DADAEADBFAD6C97D2
:101E70008D839E83AF83B88720E030E040E85FE346
:101E80006D817E818F8198850E943C1488232CF47B
:101E900081E090E09A87898761C020E03FEF4FE7BB
:101EA00057E46D817E818F8198850E94BD1418163C
:101EB0000CF042C020E030E040E251E469817A81D8
:101EC0008B819C810E94C214A0966CAF7DAF8EAFB7
:101ED0009FAFA097A0968CAD9DADAEADBFADA097C6
:101EE0008CA79DA7AEA7BFA76CA57DA58EA59FA516
:101EF0000E944114A4966CAF7DAF8EAF9FAFA497A4
:101F0000A296AEADBFADA297BA87A98710C080E9EF
:101F100091E09C878B878B859C850197F1F79C8747
:101F20008B87000089859A8501979A87898789859B
:101F30009A85892B61F71DC06D817E818F8198857F
:101F40000E944114A8966CAF7DAF8EAF9FAFA8974B
:101F5000A696EEADFFADA697FA87E98789859A85A3
:101F60009E878D878D859E850197F1F79E878D874A
:101F700000000000C959DF4F0FB6F894DEBF0FBE56
:101F8000CDBFDF91CF910895CF93DF9300D0CDB730
:101F9000DEB79A8389830BC089819A81FC01808195
:101FA0000E94940D89819A8101969A8389838981FF
:101FB0009A81FC018081882379F7000000000F904E
:101FC0000F90DF91CF910895CF93DF93CDB7DEB718
:101FD00062970FB6F894DEBF0FBECDBF6B877C87CC
:101FE0008D879E878B859C85AD85BE858F87988BD9
:101FF000A98BBA8B2AE030E0CE010196AC016F8547
:10200000788989899A890E945715CE0101960E9484
:10201000C40F000062960FB6F894DEBF0FBECDBFAE
:10202000DF91CF910895CF93DF9300D000D0CDB74B
:10203000DEB769837A838B839C8300000F900F90B7
:102040000F900F90DF91CF910895CF93DF9300D041
:10205000CDB7DEB79A83898300000F900F90DF9190
:10206000CF910895CF93DF93CDB7DEB741E062E023
:1020700082E00E9457040000DF91CF910895CF9332
:10208000DF93CDB7DEB741E062E082E00E94570502
:102090000000DF91CF910895CF93DF93CDB7DEB7E6
:1020A00040E062E082E00E9457050000DF91CF919E
:1020B0000895CF93DF93CDB7DEB762E082E00E9450
:1020C00057060000DF91CF910895CF93DF93CDB7EE
:1020D000DEB741E064E083E00E94570441E063E042
:1020E00082E00E94570441E064E082E00E945704CD
:1020F0000000DF91CF910895CF93DF93CDB7DEB786
:1021000041E064E083E00E9457050000DF91CF9139
:102110000895CF93DF93CDB7DEB740E064E083E06E
:102120000E9457050000DF91CF910895CF93DF9370
:10213000CDB7DEB741E063E082E00E94570540E0A2
:1021400064E082E00E9457050000DF91CF9108957E
:10215000CF93DF93CDB7DEB740E063E082E00E942B
:10216000570541E064E082E00E9457050000DF91DE
:10217000CF910895CF93DF93CDB7DEB787E390E09B
:10218000FC01208187E390E02062FC01208387E34B
:1021900090E0FC01208187E390E02F7BFC0120830D
:1021A00087E390E0FC01208187E390E02068FC0158
:1021B000208387E390E0FC01208187E390E02061A9
:1021C000FC0120838DE290E023E5FC0120830000E8
:1021D000DF91CF910895CF93DF930F92CDB7DEB704
:1021E00089838FE290E02981FC01208300008EE248
:1021F00090E0FC018081881F8827881F882F90E04D
:1022000081709927019799F7000000000F90DF91E6
:10221000CF910895CF93DF93CDB7DEB700008EE264
:1022200090E0FC018081881F8827881F882F90E01C
:1022300081709927019799F78FE290E0FC018081E6
:10224000DF91CF910895CF93DF930F92CDB7DEB793
:1022500089838981882F90E0892B51F488E390E06D
:10226000FC01208188E390E02F7EFC01208301C0E7
:10227000000000000F90DF91CF910895CF93DF937E
:10228000CDB7DEB783E590E0FC01208183E590E0E7
:10229000277FFC01208383E590E0FC01208183E51A
:1022A00090E02F7BFC01208383E590E0FC012081FE
:1022B00083E590E02460FC01208383E590E0FC014D
:1022C000208183E590E02D7FFC01208383E590E071
:1022D000FC01208183E590E02160FC012083000067
:1022E000DF91CF9108950F931F93CF93DF93CDB7D5
:1022F000DEB76A970FB6F894DEBF0FBECDBF6A8B0C
:102300007B8B8C8B9D8B4E8B19821A821B821C823D
:1023100080E48D834A895B896C897D8988EE93E0AE
:10232000DC019A01AB010E940E146F8B788F898FAC
:102330009A8F8D81082F10E020E030E06F89788D32
:10234000898D9A8DA90198010E94E613DA01C901CD
:102350008E839F83A887B9878E819F81A885B98541
:10236000892F9A2FAB2FBB278A879B87AC87BD8786
:102370008A859B85AC85BD850196A11DB11D8A8787
:102380009B87AC87BD878E819F81A885B98599275A
:10239000AA27BB2740E051E060E070E08A019B0182
:1023A000081B190B2A0B3B0BD901C8018E879F878D
:1023B000A88BB98B82E590E02E85FC0120831FC09D
:1023C000000088E590E0FC018081882F90E081701A
:1023D00099270197B1F788E590E0FC01208188E515
:1023E00090E02160FC01208389819A81AB81BC81CE
:1023F0000196A11DB11D89839A83AB83BC8349815A
:102400005A816B817C818A859B85AC85BD85481707
:1024100059076A077B07A1F600006A960FB6F89481
:10242000DEBF0FBECDBFDF91CF911F910F910895F9
:10243000CF93DF93CDB7DEB783E590E0FC01208139
:1024400083E590E0277FFC01208383E590E0FC0199
:10245000208183E590E02F7BFC01208389E590E0DB
:10246000FC01208189E590E02160FC01208383E567
:1024700090E0FC01208183E590E02460FC01208352
:1024800083E590E0FC01208183E590E02D7FFC0155
:10249000208383E590E0FC01208183E590E02160CA
:1024A000FC01208378940000DF91CF9108950F9371
:1024B0001F93CF93DF93CDB7DEB72E970FB6F89467
:1024C000DEBF0FBECDBF6E837F83888799874A8723
:1024D00080E489834E815F816885798588EE93E009
:1024E000DC019A01AB010E940E146B877C878D87FB
:1024F0009E878981082F10E020E030E06B857C8585
:102500008D859E85A90198010E94E613DA01C90113
:102510008A839B83AC83BD838A819B81AC81BD818F
:10252000892F9A2FAB2FBB27809370009093710057
:10253000A0937200B09373008A819B81AC81BD81AE
:102540009927AA27BB2740E051E060E070E08A01AC
:102550009B01081B190B2A0B3B0BD901C801809367
:10256000780090937900A0937A00B0937B008091DB
:10257000780090917900A0917A00B0917B0022E5DB
:1025800030E0F90180838091700090917100A091FA
:102590007200B09173000196A11DB11D809370006F
:1025A00090937100A0937200B093730000002E9678
:1025B0000FB6F894DEBF0FBECDBFDF91CF911F9154
:1025C0000F910895CF93DF93CDB7DEB787E390E007
:1025D000FC01208187E390E02860FC01208383E5F3
:1025E00090E0FC01208183E590E02860FC012083DD
:1025F00083E590E0FC01208183E590E02064FC010C
:10260000208383E590E0FC01208183E590E0206257
:10261000FC01208383E590E0FC01208183E590E0CC
:102620002F7EFC01208383E590E0FC01208183E57F
:1026300090E02460FC01208383E590E0FC01208190
:1026400083E590E02D7FFC01208383E590E0FC0191
:10265000208183E590E02E7FFC0120830000DF9144
:10266000CF910895CF93DF930F92CDB7DEB78983D3
:102670008981882F90E0982F882724E630E0B901DF
:102680000E94D213CB01282F8CE590E02150FC0151
:10269000208300000F90DF91CF910895CF93DF93B7
:1026A00000D0CDB7DEB71A8219828AE290E028E125
:1026B000FC01208380E490E026E8FC01208383E392
:1026C00090E09A83898389E290E02981FC0120834C
:1026D00089819A81292F332780E490E0FC012083AF
:1026E00000000F900F90DF91CF910895CF93DF936B
:1026F0000F92CDB7DEB789838CE290E02981FC018F
:10270000208300008BE290E0FC0180818295869519
:1027100086958370882F90E081709927019791F7B3
:10272000000000000F90DF91CF910895CF93DF93C9
:10273000CDB7DEB700008BE290E0FC018081881FFE
:102740008827881F882F90E081709927019799F733
:102750008CE290E0FC018081DF91CF910895CF93CE
:10276000DF9300D0CDB7DEB79A83898300008BE278
:1027700090E0FC018081881F8827881F882F90E0C7
:1027800081709927019799F78CE290E0FC012081F4
:1027900089819A81FC01208381E00F900F90DF9165
:1027A000CF91089597FB072E16F4009407D077FD7C
:1027B00009D00E94191407FC05D03EF4909581952C
:1027C0009F4F0895709561957F4F0895A1E21A2E4D
:1027D000AA1BBB1BFD010DC0AA1FBB1FEE1FFF1FC5
:1027E000A217B307E407F50720F0A21BB30BE40B15
:1027F000F50B661F771F881F991F1A9469F760955C
:102800007095809590959B01AC01BD01CF01089515
:10281000EE0FFF1F0590F491E02D09940E942D14F6
:10282000A59F900DB49F900DA49F800D911D112424
:102830000895AA1BBB1B51E107C0AA1FBB1FA61707
:10284000B70710F0A61BB70B881F991F5A95A9F759
:1028500080959095BC01CD010895A29FB001B39FD2
:10286000C001A39F700D811D1124911DB29F700D99
:10287000811D1124911D08950E94701408F481E0B7
:1028800008950E949C1488F09F5798F0B92F9927BB
:10289000B751B0F0E1F0660F771F881F991F1AF04B
:1028A000BA95C9F714C0B13091F00E94B614B1E0E6
:1028B00008950C94B614672F782F8827B85F39F0E5
:1028C000B93FCCF3869577956795B395D9F73EF4E4
:1028D00090958095709561957F4F8F4F9F4F08958C
:1028E000990F0008550FAA0BE0E8FEEF1616170621
:1028F000E807F907C0F012161306E407F50798F089
:10290000621B730B840B950B39F40A2661F0232BA1
:10291000242B252B21F408950A2609F4A140A6951D
:102920008FEF811D811D089557FD9058440F551F4D
:1029300059F05F3F71F04795880F97FB991F61F041
:102940009F3F79F087950895121613061406551FB8
:10295000F2CF4695F1DF08C0161617061806991F24
:10296000F1CF86957105610508940895E894BB2719
:1029700066277727CB0197F908950E94701408F411
:102980008FEF08950E94D5140C9446150E943815B7
:1029900038F00E943F1520F0952311F00C942F156C
:1029A0000C94351511240C94B7140E94941470F3F0
:1029B000959FC1F3950F50E0551F629FF001729FE4
:1029C000BB27F00DB11D639FAA27F00DB11DAA1FF3
:1029D000649F6627B00DA11D661F829F2227B00D40
:1029E000A11D621F739FB00DA11D621F839FA00DCB
:1029F000611D221F749F3327A00D611D231F849F1B
:102A0000600D211D822F762F6A2F11249F57504071
:102A10009AF0F1F088234AF0EE0FFF1FBB1F661FEC
:102A2000771F881F91505040A9F79E3F510580F0B5
:102A30000C942F150C94B7145F3FE4F3983ED4F335
:102A4000869577956795B795F795E7959F5FC1F759
:102A5000FE2B880F911D9695879597F9089597F904
:102A60009F6780E870E060E008959FEF80EC089534
:102A700000240A941616170618060906089500245D
:102A80000A9412161306140605060895092E0394D7
:102A9000000C11F4882352F0BB0F40F4BF2B11F44B
:102AA00060FF04C06F5F7F4F8F4F9F4F08952532A7
:102AB000310520F4223010F00C946215FA011082D6
:102AC000CA010895BB272A3051F4992342F4BDE28C
:102AD00090958095709561957F4F8F4F9F4F0C9487
:102AE0007215BB27FA01A62F6217710581059105A2
:102AF000330B30FB66F0AA27660F771F881F991FDC
:102B0000AA1FA21710F0A21B63953850A9F7A05D69
:102B1000AA3308F0A95DA19336F7B111B1931082E1
:102B2000CA010C949315DC01FC01672F7191772386
:102B3000E1F7329704C07C916D9370836291AE1778
:102B4000BF07C8F30895F894FFCF7A00A800D60015
:0A2B50000401320160016001600120
:102B5A003132332B3435362D3738392A41303D2F2F
:00000001FF
